S01800006275696C642F6D6963617A2F6D61696E2E73726563E5
S11300000C9449000C9466050C9470050C947A05C4
S11300100C9484050C948E050C9498050C949F09FB
S11300200C94A2050C9468000C9468000C941A19A2
S11300300C94A10B0C9430050C9446050C94AC055F
S11300400C941F050C94D50D0C9468000C94680056
S11300500C9468000C9468000C9468000C9468007C
S11300600C943B050C9468000C9468000C94680094
S11300700C9468000C9468000C9468000C9468005C
S11300800C9468000C9468000C94680000081C1818
S1130090141011241FBECFEFD0E1DEBFCDBF11E09D
S11300A0A0E0B1E0EEEAF9E300E00BBF02C0079084
S11300B00D92A432B107D9F712E0A4E2B1E001C075
S11300C01D92A13CB107E1F70E9423170C94D61CA2
S11300D00C9400008FB7F894992708958FBF089562
S11300E0FC0182819927582F442781819927482B25
S11300F0592BCA01892F992786958695837090700C
S11301008230910559F08330910559F0892B19F407
S113011020E030E008C02CE93FEF05C022E030E0E9
S113012002C028E030E0CA0184E0989F812D99271D
S113013011248230910559F08330910559F0892BAF
S113014019F480E090E008C08CE99FEF05C082E0DC
S113015090E002C088E090E0280F391F2A5F3F4FEB
S1130160CF01820F931F0895282F9FB7F894662319
S113017049F0E82FFF27E150FE4F8081882311F0DA
S113018021E006C0E22FFF27E150FE4F608320E00C
S1130190892F99278FBF822F99270895E82F8FB72A
S11301A0F894282F332790E0FF27E150FE4F8081F9
S11301B0861709F491E02FBF892F99270895882382
S11301C011F06E9A08956E980895882311F06F9A2D
S11301D008956F98089580E00E94DF00BA9ABB9852
S11301E0B99AB89A6C9A80E00E94E5006B986A9874
S11301F081E00E94DF00709A8DB18C7F8DB90895E3
S11302000F931F93CF93DF93182F8FB7F894C82FB2
S1130210DD270C2F61E080E00E94B400882321F0E8
S1130220CFBF85E090E024C080911C018823A1F415
S113023080912D01823081F409C082E080932D01E8
S113024010921C010E94EB00B89AC09810931901F7
S113025080E00FBF99270CC080912D01882369F39A
S11302608FB7F89499271092FF018FBF81E0F1CFE7
S1130270DF91CF911F910F910895282F9FB7F89484
S1130280E82FFF27E05AFE4F80818F3F81F4E091F1
S1130290BF02E21771F40BC02093790204C0FF2758
S11302A0E05AFE4F20832093BF0220E007C025E0E0
S11302B005C0809179028F3F91F7EECF892F99275E
S11302C08FBF822F992708951F93182F81E00E94D2
S11302D0DF001FB9779BFECF8FB199271F91089537
S11302E0FF920F931F93CF93DF93F82E8B018FB759
S11302F0F894C82FDD2760E080E00E94CE008823B8
S113030021F0CFBF80E090E00CC0CFBF8F2D0E94C2
S11303106401812F99270E946401802F0E94640147
S11303209927DF91CF911F910F91FF9008958F929C
S11303309F92AF92BF92CF92DF92EF92FF920F9370
S11303401F93CF93DF938FB7F8949927C090B60289
S1130350D090B7028090F5019090F601C091DD0134
S1130360D091DE012091440130914501FAE0AF2E95
S1130370B12CAC0EBD1E2A153B0508F459018FBFE4
S11303807401EC0EFD1E86010C0F1D1F14C0C11458
S1130390D10419F0F801808101C080E00E94640159
S11303A08114910411F0F701808321960894E11CD3
S11303B0F11C0F5F1F4FC5010197C817D90738F308
S11303C081E00E94E5009FB7F894C114D10431F094
S11303D0CC0EDD1EF60180818FB901C01FB8D09309
S11303E0DE01C093DD01892F99278FBF80E090E063
S11303F0DF91CF911F910F91FF90EF90DF90CF90FD
S1130400BF90AF909F908F9008952FB7F8943327A3
S113041050934501409344019093B7028093B602F0
S11304207093F6016093F5011092DE011092DD01E4
S11304302FBF452B29F08FB10E949701992708956A
S113044089E00E943D0180E090E008958FB7F89420
S11304509927109201028FBF08957FB7F89462B76D
S113046020914701309148014091490150914A013E
S113047006B601FE0FC081B792B7280F311D411D8A
S1130480511D2F5F3F4F4F4F5F4F290F311D411DAE
S1130490511D04C0260F311D411D511D872F992761
S11304A08FBFCA01B9010895DF92EF92FF920F93B3
S11304B01F938FB7F894282F3327D22E91B782B782
S11304C046B7981711F041FF02C02FBF6AC0809150
S11304D0DC018823E1F10E942D02E090FB01F09001
S11304E0FC010091FD011091FE0120915A0130910F
S11304F05B0140915C0150915D016E197F09800B95
S1130500910B621773078407950720F01092DC01A2
S113051071E01EC02E0D3F1D401F511F80914701E9
S113052090914801A0914901B0914A01281B390BCF
S11305304A0B5B0B273E31054105510540F4822FE0
S1130540223010F070E005C070E082E002C070E07C
S113055086EE682F615000B601FCFDCF82B76817A4
S113056009F46F5F2091470130914801409149019E
S113057050914A01DA01C9010196A11DB11D860FEE
S1130580911DA11DB11D82179307A407B50710F48F
S1130590622F609561BFDFBE772319F08CE00E9463
S11305A03D011F910F91FF90EF90DF900895AFB739
S11305B0F894BB27E1E0E093DC016093FB017093C6
S11305C0FC018093FD019093FE0120935A01309326
S11305D05B0140935C0150935D01AFBF0E945402E4
S11305E008958FB7F89499272BB334E023272BBBB6
S11305F08FBF0895DF92EF92FF920F931F93D82E2F
S11306007A018B010E942D0229E0D29EF00111246F
S1130610ED51FE4F6083718382839383E482F5827C
S1130620068317838085836080878DE00E943D0167
S11306301F910F91FF90EF90DF90089580E88093D1
S11306405E0110927A011092B00210927802109218
S113065075010895CF93DF93FC0115A6DC019E96E6
S1130660ED011B821A82198280E886A7DF91CF915F
S113067008952F923F924F925F926F927F928F9242
S11306809F92AF92BF92CF92DF92EF92FF920F931D
S11306901F93CF93DF93CDB7DEB728970FB6F894A7
S11306A0DEBF0FBECDBF2090C1013090C20140908B
S11306B0C3015090C4016624772488241EE4A12E2B
S11306C0B3E8BB2ECC24DD24EE24FF2400E010E0AC
S11306D0222D332D442D552D662D772D882D90E018
S11306E00E94B81A29833A834B835C836D837E838B
S11306F08F839887822E932EA42EB52E2401350144
S113070000E20E94B61BA22EB32EC42ED52EC30126
S1130710B20196958795779567956A0D7B1D8C1D1B
S11307209D1D97FF05C09F776F5F7F4F8F4F9F4F32
S11307306093C1017093C2018093C3019093C4017B
S113074028960FB6F894DEBF0FBECDBFDF91CF91D0
S11307501F910F91FF90EF90DF90CF90BF90AF90DB
S11307609F908F907F906F905F904F903F902F90CD
S113077008958FB7F8946091E1017091E2012CB56E
S11307803DB506B602FE04C06F5F7F4F2CB53DB584
S113079099278FBF88279927CB0177276627442776
S11307A05527622B732B842B952B0895EF92FF9280
S11307B00F931F930E94B9037B018C012091CB01FD
S11307C03091CC014091CD015091CE018091C60170
S11307D09091C701A091C801B091C901820F931FE4
S11307E0A41FB51FE216F3060407150730F082179D
S11307F09307A407B50758F005C082179307A40709
S1130800B507E0F5E816F9060A071B07B8F59C01D9
S1130810AD012E193F09400B510B213060E836071A
S113082060E0460760E0560768F180E090E8A0E0E9
S1130830B0E0E80EF91E0A1F1B1FE092CB01F092F4
S1130840CC010093CD011093CE0180E090E8AFEF8E
S1130850BFEFE80EF91E0A1F1B1F2050304840400E
S113086050402093C6013093C7014093C801509370
S1130870C90120E030E840E050E014C020E030E05E
S113088040E050E08093CB019093CC01A093CD0144
S1130890B093CE011092C6011092C7011092C80104
S11308A01092C901A901B7012CB53DB5C9018E1932
S11308B09F0903968417950720F0B9016D5F7F4F58
S11308C002C0640F751F6115710511F461E070E0D9
S11308D0615070407BBD6ABD80E186BF87B780618F
S11308E087BF1F910F91FF90EF9008950F931F936F
S11308F00FB7F89411276093CB017093CC018093C8
S1130900CD019093CE012093C6013093C70140934B
S1130910C8015093C9010E94D6030FBF1F910F91C4
S113092008958FB7F894992760910D028FBF85E0E1
S1130930689FB0011124625D7E4F706488E10E945B
S1130940700108951F931FB7F89480917401882350
S113095019F460E070E009C060E08091B50288237A
S113096009F461E081E06827772780917E0188237C
S113097019F480E090E00AC090E08091040288239A
S113098009F491E081E09827892F9927762F66272B
S1130990770F770F770F54E0880F991F5A95E1F777
S11309A0826E9262682B792B81E10E947001812F03
S11309B099278FBF1F91089597B79F7D97BF90E2A6
S11309C096BF882319F08EB5806402C08EB58F7BE4
S11309D08EBD87B7806287BF80E090E00895AF92B4
S11309E0BF92CF92DF92EF92FF920F931F93CF9318
S11309F0DF93CDB7DEB728970FB6F894DEBF0FBEEE
S1130A00CDBF20E070E0E0910001F091010132E1FE
S1130A104DE65CE46FE4809101019E2F28960FB6A9
S1130A20F894DEBF0FBECDBFDF91CF911F910F9120
S1130A30FF90EF90DF90CF90BF90AF9008951F92FA
S1130A400F920FB60F9211248F9383B783BF00B612
S1130A5000FCFDCF8F910F900FBE0F901F90189543
S1130A6078941F920F920FB60F9211240F900FBE1D
S1130A700F901F90189578941F920F920FB60F92B3
S1130A8011240F900FBE0F901F90189578941F9209
S1130A900F920FB60F9211242F933F938F939F932E
S1130AA02FB7F89433278091E1019091E2010196E8
S1130AB09093E2018093E1012FBF9F918F913F9129
S1130AC02F910F900FBE0F901F9018951F920F92A9
S1130AD00FB60F9211240F900FBE0F901F90189510
S1130AE01F920F920FB60F9211240F900FBE0F900A
S1130AF01F9018951F920F920FB60F9211240F900A
S1130B000FBE0F901F9018951F920F920FB60F9261
S1130B1011240F900FBE0F901F9018951F920F92E3
S1130B200FB60F9211240F900FBE0F901F901895BF
S1130B301F920F920FB60F9211240F900FBE0F90B9
S1130B401F9018951F920F920FB60F9211240F90B9
S1130B500FBE0F901F9018951F920F920FB60F9211
S1130B6011242F933F934F935F936F937F938F93AE
S1130B709F93AF93BF93EF93FF9383B783BF00B665
S1130B8000FCFDCF81B799270196AA27BB272091A6
S1130B904701309148014091490150914A01280F81
S1130BA0391F4A1F5B1F209347013093480140932C
S1130BB0490150934A0178940E945402FF91EF91A5
S1130BC0BF91AF919F918F917F916F915F914F9161
S1130BD03F912F910F900FBE0F901F9018950F9378
S1130BE01F93182F0FB7F89461E080E00E94B400BF
S1130BF0882371F51093190180911C018823A9F5AC
S1130C0080912D01823089F588E00CC00E94EB00B0
S1130C1080912D01882349F481E080932D01109265
S1130C2076018AE00E943D012AC08091CA018F3F6B
S1130C3031F5E0911B01EE2311F11CC010921A0151
S1130C4004C0FF27E653FE4F108210921B0117C009
S1130C5081E090E002C0880F991F1A95E2F7209175
S1130C602C01282B20932C010AC080912D0188236C
S1130C70E1F6CCCF80911A018F3F19F7DFCF802F97
S1130C8099278FBF80E090E01F910F9108951F93E3
S1130C9083E00E9400019927182F882319F083E02C
S1130CA00E94EF05812F99271F910895CF92DF921B
S1130CB0EF92FF920F931F93CF93DF938C01F62E45
S1130CC06A01E22E8FB7F894C82FDD2760E080E038
S1130CD00E94CE00882321F0CFBF80E090E01EC0A8
S1130CE0CFBF0F0D111D802F80680E946401F82E64
S1130CF016950795802F807C0E9464010E2D0AC0F2
S1130D00EE2DFF27E01BF109EC0DFD1D80810E94F3
S1130D10640101500023A1F78F2D9927DF91CF9112
S1130D201F910F91FF90EF90DF90CF900895CF9394
S1130D30DF93CDB7DEB72C970FB6F894DEBF0FBEA6
S1130D40CDBF8FB7F894282FAE014F5F5F4FDA0104
S1130D50E5E0F2E088E001900D928150E1F78091A6
S1130D607C0190917D018987892F99278A878091B9
S1130D70CF019091D0018B87892F99278C872FBF22
S1130D802CE060E080E691E00E9456062C960FB6B7
S1130D90F894DEBF0FBECDBFDF91CF910895EF92DF
S1130DA0FF921F93CF93DF93E090B301F090B401CF
S1130DB0F70182A59927182F882309F41FE1C09809
S1130DC080917301811749F0612F77276F717070DB
S1130DD0606E706885E10E94700110937301F701E1
S1130DE010818FB7F894C82FDD2760E080E00E945F
S1130DF0CE00882311F0CFBF12C0CFBF8EE390E0A6
S1130E009093D4018093D3018EE30E946401115026
S1130E10412F552760E070E0C7010E940502DF9171
S1130E20CF911F91FF90EF9008950F931F93CF934D
S1130E30DF93EC010FB7F89411270E947000FC01B6
S1130E408FE380830FBF1092B3021092B20261E06D
S1130E5082E00E94B400882319F085E090E072C01B
S1130E6080910F028F5F80930F0281508B838FB725
S1130E70F894082F112762E081E00E94CE008823B5
S1130E8029F40FBF0E94260281E05BC08FB7F8945B
S1130E90992724E0209300028FBFD093DA01C093F6
S1130EA0D9010FBFFE013196818129819927982F9D
S1130EB088273327822B932B80729C7C8983892FEC
S1130EC0992781832981982F882733272164822BAE
S1130ED0932B8983892F992781831CA618A619A689
S1130EE019AA18AA1FA680E88EA761E060930302DE
S1130EF04091D9015091DA018FB7F894282F332704
S1130F0080912E0190912F018830910511F0019765
S1130F1011F02FBF15C082E090E090932F018093D1
S1130F202E016093C0025093B4014093B301109218
S1130F3046012FBF0E944706882311F40E94CF0662
S1130F4080E09927DF91CF911F910F910895CF935E
S1130F50DF93DA01422F2D3118F082E090E05EC079
S1130F60ED018B876E83872F99278F832FB7F89492
S1130F70332780917C0190917D012FBFFD018483F3
S1130F80892F992785832FB7F894332780911D01E2
S1130F9090911E012FBF8887892F992789873196C1
S1130FA0818129819927982F8827332720643868DD
S1130FB0822B932B8983892F99278183435F4C93B9
S1130FC04D5080912001882359F010922001642F04
S1130FD0CD010E9415079927282F8823A9F417C04B
S1130FE0842F99279093D8018093D701B09333012C
S1130FF0A09332018EE00E943D018091200188235C
S113100049F489E090E00AC08FEF80932001822F99
S1131010992704C01092C50180E090E0DF91CF9140
S1131020089510921801E091DF01F091E0013097EA
S113103021F08091B10280FF08C081E08093180103
S1131040089581E00E943D01089520812D503327A9
S113105067817727762F662786819927682B792BD6
S1131060AF0183850E94A707882359F70895CF937A
S1131070DF9380911801882391F4C091DF01D0910E
S1131080E001C617D70759F41092E0011092DF016E
S11310900E941108CC57D24011F41092DB01DF9169
S11310A0CF910895CF93DF93FB01DB0116968683DE
S11310B0892F9927ED0189838AE083878091DF0155
S11310C09091E001892B19F085E090E02BC0F0931A
S11310D0E001E093DF01435F40834D5080911801AC
S11310E0882319F480E090E01DC08385ED016981B7
S11310F07727762F662726813327622B732B10924E
S11311001801242FAF010E94A7079927282F8823AD
S113111039F081E0809318011092E0011092DF0110
S1131120822F9927DF91CF910895AF92BF92CF92EA
S1131130DF92EF92FF920F931F935B016C0160911A
S1131140EB0161FF20C02091E3013091E401409163
S1131150E5015091E601E090E701F090E80100918B
S1131160E9011091EA01D601C501821B930BA40B7E
S1131170B50B8E159F05A007B10728F0E3EEF1E04B
S1131180A0E0B0E021C0ECEEF1E06091F40161FF79
S113119054C02091EC013091ED014091EE01509149
S11311A0EF01E090F001F090F1010091F201109153
S11311B0F301A21AB30AC40AD50AAE14BF04C006C6
S11311C0D106D8F1A1E0B0E060FF04C080858D7F36
S11311D0808708C02E0D3F1D401F511F208331837F
S11311E042835383A13049F580910001909101011C
S11311F0019719F5809124018823F9F411E01093E3
S113120089021092880287E080938D0210928C02EA
S1131210809393021092920210938B0210928A028E
S11312204CE06CE772E08FEF9FEF0E945208882336
S113123021F41093DB01109324018DE00E943D0101
S11312401F910F91FF90EF90DF90CF90BF90AF90E0
S113125008951F93CF93DF93182F8FB7F894C82F57
S1131260DD2760E080E00E94CE00882321F0CFBF1C
S113127080E090E005C0CFBF812F0E9464019927D0
S1131280DF91CF911F910895EF92FF920F931F93D7
S1131290CF93DF93182F7B01042F8FB7F894C82FB7
S11312A0DD2760E080E00E94CE00882321F0CFBFDC
S11312B080E090E014C0CFBF1064812F99279093F1
S11312C0D4018093D3010E946401182F402F552725
S11312D0B70180E090E00E940502812F9927DF91F9
S11312E0CF911F910F91FF90EF900895C098609156
S11312F036017091370141E08FE30E94440908955B
S113130082E090E09093700180936F0181E080937C
S11313107A0120E030E080911901843011F421E059
S113132030E0232B29F484E00E940001882319F47F
S11313300E947609089584E00E94EF0508951F92A3
S11313400F920FB60F9211242F933F934F935F93F5
S11313506F937F938F939F93AF93BF93EF93FF9379
S113136080916F0190917001019749F482E090E0BF
S11313709093700180936F010E94800905C0809151
S113138075018F5F80937501FF91EF91BF91AF91CC
S11313909F918F917F916F915F914F913F912F9189
S11313A00F900FBE0F901F9018951F9380912C01E2
S11313B0882309F04BC0109119011F3F09F046C062
S11313C060E00E94CE00882309F440C081E080934D
S11313D00E0280915F018823E1F110920E0285E0F4
S11313E090E045C0923069F5C09A80911A0120E0DE
S11313F030E08F3F11F421E030E0232BE9F4109327
S11314001C018F3F19F42FEF30E00DC0282F332734
S1131410F901E653FE4F808180931A018F3F11F446
S113142010931B0110832093760181E080932D019A
S11314308AE00E943D0105C010931C0110922D0109
S113144011C080912D01882369F00FC081E090E0E4
S11314500EC080911C0190912D01882319F29230C5
S113146021F0EFCF80E00E94DF0080E090E01F9148
S113147008951F93CF93DF939FB7F894C92FDD2767
S11314801C2F90911901981721F0CFBF81E090E0B3
S11314903AC08FEF8093190130912C013323F1F47A
S11314A08FB7F89499271092FF018FBF0E94D50936
S11314B0CFBF11C02093190181E090E002C0880FD2
S11314C0991F4A95E2F78095382330932C0188E0E0
S11314D00E943D011FBF80E090E015C080E065E000
S11314E0E32FFF270E94391C292F492F5527CF01AD
S11314F0042E02C0959587950A94E2F780FDDACF11
S1131500822F8F5FEFCFDF91CF911F9108951F93AB
S1131510CF93DF938FB7F894C82FDD271C2F8091CA
S11315206F0190917001892B29F484E00E94390A9B
S1131530CFBF1EC010927A0180917501882311F0EB
S1131540B79904C00E9908C0882319F0815080937C
S113155075010E9480090BC081E090E090937001B6
S113156080936F011092750184E00E94390A1FBFB5
S1131570DF91CF911F9108950E941E03C09AC098D5
S113158088E00E94290988E00E942909C09A84E021
S11315900E94390A0E94870A08951F93182F81E038
S11315A090E090932F0180932E0110925F010E948E
S11315B0D5098FB7F8949927109328018FBF84E039
S11315C00E943D011F91089561E081E00E94B400F2
S11315D08823E9F48FB7F894282F332780912901C1
S11315E090912A01892B11F02FBF20C081E090E057
S11315F090932A01809329012FBFDD9A0E94B90399
S113160024E130E040E050E00E9476040FC062E044
S113161081E00E94CE00882319F089E090E00895CB
S113162061E081E00E94CE00882319F080E090E020
S1131630089585E090E00895CF92DF92EF92FF92B3
S11316400F931F93CFB6F894DD240E943903DC0175
S1131650CB0166E470E00E94451C7BE0E72EF12C90
S1131660E80EF91EF092BD02E092BC020E94B9039A
S113167000271127A80197010E947604CFBE1F916D
S11316800F91FF90EF90DF90CF9008951F93CF9329
S1131690DF938FB7F894C82FDD271C2F80912E017C
S11316A090912F010897C9F489E00E94290983E0E9
S11316B00E94390AC09A81E090E090932F018093B0
S11316C02E018FB7F894992723E0209328018FBF28
S11316D084E00E943D01CFBF30C0C0988091C00219
S11316E0882311F085E001C084E00E94290983FD6C
S11316F009C080E00E94290983FF04C085E090E0CE
S113170020E003C083E090E021E090932F018093D8
S11317102E01C09A1FBF222341F01092460183E09C
S11317200E94390A0E941C0B08C00E94B90320E4DD
S113173031E040E050E00E947604DF91CF911F91A8
S1131740089578941F920F920FB60F9211241F934D
S11317502F933F934F935F936F937F938F939F93B5
S1131760AF93BF93EF93FF9387B78F7E87BF789430
S11317701FB7F8948091C6019091C701A091C80148
S1131780B091C9010097A105B10509F051C080913C
S11317902E0190912F018530910561F186309105DC
S11317A030F48330910549F0049781F51AC08730ED
S11317B09105F1F0089751F514C0869B0FC084E0A1
S11317C090E090932F0180932E010E94B90327E0AB
S11317D030E040E050E00E94760418C00E941C0BE8
S11317E015C00E944706882389F40E94460B0EC048
S11317F080E00AC089E00E94290981E00E94DC049B
S113180083E00E94390A87E00E94CD0A8091290171
S113181090912A01019771F482E090E090932A015B
S113182080932901DE98DE9A80E00E94EF0502C0D1
S11318300E94D603812F99278FBFFF91EF91BF910B
S1131840AF919F918F917F916F915F914F913F9154
S11318502F911F910F900FBE0F901F901895EF922C
S1131860FF920F931F93CF93DF938B018091D3014A
S11318709091D40186FF40C18F7B8F3309F08EC1D4
S1131880C0913601D09137015881509371018091F4
S11318906F01909170018530910509F443C0863041
S11318A0910509F48AC0029709F01FC185E090E010
S11318B09093700180936F0140915E01852F992769
S11318C00196242F3327281739074CF1B79906C0FE
S11318D00E9904C0451B415040935E014091710133
S11318E04A32E8F44423A1F0BE016F5F7F4F4830D1
S11318F018F047E050E007C086E090E09093700154
S113190080936F01552780E090E00E94050246C154
S113191010927A01C09A84E00E94390AE3C00E94BE
S1131920BC0A3CC186E090E09093700180936F0103
S113193080917E01882309F439C0809104028823B0
S1131940A9F5898185FF32C08F814E812FB7F89424
S113195033276091CF017091D0012FBF9927982F21
S113196088275527842B952B8617970759F08F8145
S11319702E819927982F88273327822B932B8F5FCB
S11319809F4FA1F489818770813081F4C09AC098F7
S11319908AE00E942909C09AC09840917101475079
S11319A02896BE018FE30E944409F8C0409171015A
S11319B0475055272896BE01A6CFC09A809175013D
S11319C0882339F484E00E94390A809175018823C0
S11319D011F0B7990AC00E9B08C090917802992320
S11319E021F0809171018B3038F48091360190910F
S11319F037010E942A033DC0913001F5E091B00205
S1131A00FF27EE0FFF1FEE0FFF1FEC5DFD4F208140
S1131A10318142815381E0913601F091370121AB4C
S1131A20BB27A52F942F832F80ABCA01AA27BB27DE
S1131A3087A7252F33274427552726A78091B0024F
S1131A409927019668E070E00E94591C8093B002C7
S1131A5080917802815080937802882351F080919C
S1131A603601909137010E942A031092B00210921D
S1131A70780280917101FE01E80FF11D808187FFDA
S1131A8031C0012B79F169816770E0913601F091E1
S1131A903701623019F5A091B301B091B4011097E8
S1131AA009F180912E0190912F010797D9F4ED014E
S1131AB09B8183819817B1F487B78F7E87BF90810C
S1131AC081E08CA7E90FF11D8291319688A780816E
S1131AD08F7789A780E00E94CD0A04C0613011F499
S1131AE08BE02AC00E94870A59C010927A01C09ADA
S1131AF084E00E94390A52C08E3309F04FC0C09A64
S1131B0080912E0190912F010897C9F4C09889E023
S1131B100E942909C09A83E00E94390A81E090E07A
S1131B2090932F0180932E018FB7F894992723E087
S1131B30209328018FBF84E00E943D012FC0809133
S1131B40C002882349F484E090E090932F018093AD
S1131B502E010E94460B22C083E00E94390A83E0D2
S1131B6090E090932F0180932E010E943903DC01B1
S1131B70CB0166E371E00E94451CEBE0EE2EF12CF4
S1131B80E80EF91EF0925901E09258010E94B9033F
S1131B9000271127A80197010E947604DF91CF91B5
S1131BA01F910F91FF90EF9008951F920F920FB61F
S1131BB00F9211242F933F934F935F936F937F93CF
S1131BC08F939F93AF93BF93EF93FF932FB1E091C4
S1131BD0F501F091F601309739F08091DD01909193
S1131BE0DE01E80FF91F20838091DD019091DE0171
S1131BF001969093DE018093DD0180E00E94E50070
S1131C0040914401509145018091DD019091DE01A4
S1131C108417950718F40E9497011CC06091F50180
S1131C207091F6018091B6029091B7021092F6017C
S1131C301092F5011092B7021092B602109245016B
S1131C40109244011092DE011092DD012FB120E0C8
S1131C500E942F0CFF91EF91BF91AF919F918F91B3
S1131C607F916F915F914F913F912F910F900FBE94
S1131C700F901F9018952F923F924F925F926F9200
S1131C807F928F929F92AF92BF92CF92DF92EF9208
S1131C90FF920F931F93CF93DF93CDB7DEB7AA972D
S1131CA00FB6F894DEBF0FBECDBF873009F45BC119
S1131CB0883098F4833009F4DCC0843038F48130FF
S1131CC009F45AC0823008F074C028C0853009F481
S1131CD027C1863008F040C1D2C08B3009F46FC2EE
S1131CE08C3038F4893009F433C28A3008F053C296
S1131CF072C18D3011F40C9445168D3010F40C948F
S1131D0010168E3011F00C94ED160C94C2162FBFE1
S1131D100C94ED16C601B5010C9442168091B102E3
S1131D20882311F40C94ED1640E051E001C0550FE6
S1131D309091B102852F8923D1F0E42FFF27EE0F74
S1131D40FF1FE152FE4F2081318111821082852FC5
S1131D50809598239093B102442349F42C57324040
S1131D6011F00C94E9161092DB010C94E9164F5F04
S1131D704830E8F20C94ED1610911801E12FFF277A
S1131D80EE0FFF1FE152FE4FE080F18011821082BE
S1131D900E941108112311F00C94ED165CE7E5166E
S1131DA052E0F50611F00C94ED161092DB010C9440
S1131DB0ED160FB7F894112781E00E94DC0441E08E
S1131DC0E42EF12CF0922F01E0922E0110923001BA
S1131DD010925F01109273010FBF0FB7F89411278F
S1131DE00E941E03F0927001E0926F0110927A013A
S1131DF089B78F7B89BF80E488BF8AB780628ABF36
S1131E008AB78F7E8ABF89B7806489BF0FBF8FB7B7
S1131E10F894082F11278091290190912A010497A1
S1131E2019F483E00E9429090FBF0FB7F894112712
S1131E30C09A80E00E94390A0FBF8FB7F89499279F
S1131E4022E0209300028FBF809100019091010154
S1131E50019711F00C94ED160E942D02AB01BC0108
S1131E6044515C4E6F4F7F4F81E00E94FA020C9404
S1131E70ED168FB7F89499271092000272C08FB7AD
S1131E80F8949927F09028018FBF63E081E00E94C5
S1131E90CE00882359F10FB7F894112710922F011F
S1131EA010922E0187B78F7E87BF87B78F7D87BF3C
S1131EB083E00E94390AC09A0FBF0FB7F894112724
S1131EC01092700110926F010E941E03C09A89B78C
S1131ED08F7B89BF0FBF10922A0110922901DE98CF
S1131EE0DD98DE9A83E00E943D0107C08FB7F89425
S1131EF0992722E0209300028FBF0091D90110910D
S1131F00DA010E9426028091B2029091B302892BD9
S1131F1009F063C78FEF809320014F2DB80150C79C
S1131F208FB7F894282F3327122F8091BE0288236D
S1131F3009F0EDCE81E08093BE0280912901909159
S1131F402A01049721F481E00E94EF0503C086E092
S1131F500E943D011FBF41C78FB7F8949927109283
S1131F60BE028FBF3AC78FB7F894282F33278091CA
S1131F702B01882309F0CBCE2FBF80B3992736E0FD
S1131F80969587953A95E1F7182F11709091D101A4
S1131F908091D2018917D9F01917C9F484E090E02F
S1131FA090932A01809329018FB7F894992721E00F
S1131FB020932B018FBF60E070E08DE10E947001DF
S1131FC00E949706C09AC09882E00E943D01109337
S1131FD0D20187E06DC08FB7F89499271091190149
S1131FE08FBF123009F467C0133030F4112359F055
S1131FF0113009F0F2C648C0133009F476C0143029
S113200009F0EBC6A2C0C0988FB7F894082F112727
S11320108091290190912A010297A1F583E090E033
S113202090932A018093290168E170E08DE10E9478
S1132030700181E08093D10110922B0180B3992724
S113204026E0969587952A95E1F7817090708093A4
S1132050D20187E00E943D0181E00E9429096FE7D7
S113206072E08CE10E9470010E9491040E94A2041B
S113207066E57AE287E10E9470016FEF70E885E11E
S11320800E9470010FBFA9C6C09886E00E9429096A
S11320900E9491040E94A2040E949706C09AC098CC
S11320A083E00E942909C09A81E00E94390A86E0EF
S11320B00E943D0192C6C0988FB7F894082F11274B
S11320C060E080E00E94CE00882311F00FBF0AC0B8
S11320D00FBF83E50E94640180E00E94640180E0F8
S11320E00E946401C09A82E02DC08FB7F8949927AA
S11320F020912E018FBF243039F0283041F0223056
S113210001F50E94CF0669C60E94460B66C6C098B8
S113211089E00E942909C09A83E00E94390A8FB796
S1132120F894992721E030E030932F0120932E0179
S11321308FBF8FB7F8949927109328018FBF84E03D
S1132140B7CF83E00E94390A48C60E94760945C683
S11321500FB7F894112740914401509145016091C3
S1132160F5017091F6018091B6029091B702109238
S1132170F6011092F5011092B7021092B602109275
S11321804501109244011092DE011092DD0120E01D
S11321900E942F0C77CF2FB7F894332780917601C4
S11321A080931C0182E080932D012FBF80911C013C
S11321B0882309F012C6B89AC09888E079CFA09114
S11321C03601B0913701DC909D012D0D311DF901CF
S11321D08081881F8827881FFD0183A7F9018081DA
S11321E08F77FD0181A721503040F9018081FD01E5
S11321F080A7A0913601B0913701FD0132818FB7DC
S1132200F8949927209174018FBF222309F490C078
S1132210832F9927969587959695879583709070C7
S11322208230910541F5878146812FB7F894332791
S11322306091CF017091D0012FBF9927982F8827E3
S11322405527842B952B8617970719F481E090E086
S11322506CC0FD018781268140E050E09927982FCA
S113226088273327822B932B8F5F9F4F11F441E0F4
S113227050E0CA015AC0039709F0C9C49E012F5FF8
S11322803F4F45E052E088E0FA010190AF01F901C7
S113229001929F018150C1F79E012F5D3F4FAE0116
S11322A04F5F5F4F88E0FA010190AF01F90101929D
S11322B09F018150C1F79E01275F3F4FAE014F5DE3
S11322C05F4F88E0FA010190AF01F90101929F018B
S11322D08150C1F79E012F5E3F4FAE01475F5F4FB4
S11322E088E0FA010190AF01F90101929F01815048
S11322F0C1F79E01275E3F4FAE014F5E5F4F88E0FE
S1132300FA010190AF01F90101929F018150C1F7D7
S113231048E050E0BE01675E7F4FCD0106960E9403
S1132320C21C892B09F073C403C0882309F46FC449
S1132330FCE0FD1508F06BC4E0903601F090370125
S1132340F7012281822F992736E0969587953A9551
S1132350E1F7039719F468E070E002C062E070E00E
S1132360822F992796958795969587958370907077
S1132370039719F488E090E002C082E090E026E040
S113238030E0E20EF31E40E050E020E030E0F701E0
S1132390E80FF91F8AEF9FEFE80EF91E05C081913F
S11323A0480F511D2F5F3F4F26173707C4F3F7011E
S11323B063818FEF8093B4028FB7F894782F20E075
S11323C030E0ECE4F1E0808191818417950731F4E9
S11323D08281861709F414C42093B4022F5F3F4FFF
S11323E033962430310579F77FBF9091B4023FB71B
S11323F0F8949F3F21F080913101891799F420913D
S11324003101822F9927FC01EE0FFF1FE80FF91FFE
S1132410E45BFE4F5183408362832F5F23702093DC
S113242031010CC0892F9927FC01EE0FFF1FE80F23
S1132430F91FE45BFE4F518340836283832F992706
S11324408FBF0FB7F8941127C7010E947000FC01D9
S113245090810FBFF70183A5882309F4D4C39F3368
S113246009F0D1C3878146812FB7F894332760914F
S11324701D0170911E012FBF9927982F882755277A
S1132480842B952B8617970761F0878126819927DE
S1132490982F88273327822B932B8F5F9F4F09F028
S11324A0B2C3F70183858A3009F0ADC3809100017E
S11324B090910101069709F03DC0E0912601FF27A4
S11324C0E770F070E05FFE4F808163E00E94391C8A
S11324D0913081F0913018F0923039F51CC00E948F
S11324E0F10290E080911F02882309F491E0909317
S11324F01F021BC090E080914B01882309F491E0F6
S113250090934B018FB7F89499272BB332E023278C
S11325102BBB8FBF0AC00E94F10290E08091F901A9
S1132520882309F491E09093F901809126018F5F4B
S113253080932601F9E1DF1609F065C3F70184856C
S113254025859927582F44273327422B532B409313
S1132550F801442309F0DDC08785809378018089E0
S113256021899927982F88273327822B932B8093AF
S1132570F70127892093BB02258920931E02238912
S11325802093BA02282F33278091000190910101F2
S11325902817390771F410927B01D9C2EE0FFF1F7F
S11325A0E05FFD4F8081918190931D0280931C0216
S11325B019C010927B011092B9021092B802E0E0A7
S11325C0F0E0A8E3B1E08D919C91119728173907A9
S11325D029F33196F093B902E093B8021296E630EB
S11325E0F10589F72091F801822F992780938902B8
S11325F01092880280917801992780938B0210921F
S11326008A028091F701992780938D0210928C029F
S11326108091BB0299278093930210929202809139
S11326201E02992780939102109290028091BA021F
S1132630992780938F0210928E0200911C021091B0
S11326401D028091F40181FD82C2213001F5809147
S11326502401882309F07BC220932401E091000126
S1132660F0910101EE0FFF1FE050FF4F40815181B7
S11326706627772781E00E94FA02AFE7B1E0ECE732
S1132680F2E084E301900D928150E1F73DC02230E5
S113269001F580912501882309F059C281E08093D6
S11326A02501E0910001F0910101EE0FFF1FE050C0
S11326B0FF4F40815181662777270E94FA02AFE7D6
S11326C0B1E0ECE7F2E084E301900D928150E1F790
S11326D01BC0222309F03BC2E0910001F0910101EB
S11326E0EE0FFF1FE050FF4F40815181662777278F
S11326F081E00E94FA02AFE7B1E0ECE7F2E084E3A4
S113270001900D928150E1F710933501009334014B
S11327101EC2413009F095C0F70186858701015F2B
S11327201F4F27859927B82EAA243327A22AB32A14
S1132730A092780181898093F70186892789992756
S1132740782F66273327622B732B6093BB0285890E
S113275080931E0286892789A0910001B09101010E
S11327609927982F88273327822B932B8A179B0727
S113277071F482E08093F801A092F7018091000146
S11327808093780140931E0240937B0153C08A2DAD
S113279099278A179B0709F4DAC11092270110922E
S11327A0B9021092B802E0E0F0E0262F3327A2E04D
S11327B06091000171E04FEF5FEFEE0FFF1FE85CE7
S11327C0FE4F8081918182179307E1F4A093F80171
S11327D0E091B802F091B902EE0FFF1FEB54FE4FE7
S11327E080818F5F80931E0260937801F80180815D
S11327F08093F70170937B017093270150931D021E
S113280040931C02E091B802F091B9023196F09322
S1132810B902E093B802E630F1057CF28091270119
S1132820882309F094C181E08093F80110921E027C
S113283080937B018FEF9FEF90931D0280931C0286
S113284086C1423009F083C1F70185858093F80180
S11328506EE0462E512C4E0C5F1C5FE0652E712CF1
S11328606E0C7F1C878580937801208981893327AA
S1132870322F22279927282B392B2093F701870100
S11328800A5E1F4FB701695E7F4F87898093BB0241
S113289094E1892E912C8E0C9F1C85E1A82EB12CDD
S11328A0AE0CBF1C858980931E024091000150919B
S11328B0010133272417350709F0A4C0109227011A
S11328C01092B9021092B802E0E0F0E0CC24B2E039
S11328D0DB2E50910001AFEFEA2EFA2ED8018C9135
S11328E0DB012C91DF01AA0FBB1FFD01E85CFE4F49
S11328F09927982F88273327822B932B2081318186
S113290028173907D1F4CC20C1F440911E02242F9A
S11329103327AB54BE4F8D919C91281739076CF423
S1132920D092F801509378014F5F40931E021092A9
S11329307B01F0921D02E0921C02A091B802B091BA
S1132940B902AA0FBB1FE8E32E2EE1E03E2E2A0EA9
S11329503B1EF10180819181892BD9F5CC20C9F5E9
S1132960F8018081FB0120819927982F882733273C
S1132970822B932BF10191838083F2018081F301F7
S11329802081FD01E05FFD4F9927982F8827332789
S1132990822B932B91838083F4018081F501208124
S11329A0AB54BE4F9927982F88273327822B932B1C
S11329B08D939C93D092F8015093780180911E02DC
S11329C08F5F80931E0210927B01F0921D02E092B1
S11329D01C02E091B802F091B9023196F093B90269
S11329E0E093B802E630F1050CF478CF809127012A
S11329F0813009F0ACC086E090E09093B9028093F6
S1132A00B802A5C0F701868927899927982F8827B6
S1132A103327822B932B4817590709F498C0109237
S1132A20B9021092B802E0E0F0E0D090270192E001
S1132A30392E5091000181E0C82EBFEFEB2EFB2E02
S1132A40D8018C91DB012C919927982F8827332763
S1132A50822B932BDF01AA0FBB1FFD01E85CFE4F05
S1132A602081318182179307D1F4DD20C1F4409194
S1132A701E02242F3327AB54BE4F8D919C912817EF
S1132A8039076CF43092F801509378014F5F40930A
S1132A901E02C0927B01F0921D02E0921C02A091E2
S1132AA0B802B091B902AA0FBB1FFD01E85CFE4F4A
S1132AB0FAA7E9A780819181892BE1F5DD20D1F581
S1132AC0F8018081FB0120819927982F88273327DB
S1132AD0822B932BE9A5FAA591838083F20180814F
S1132AE0F3012081FD01E05FFD4F9927982F88278E
S1132AF03327822B932B91838083F4018081F5010A
S1132B002081AB54BE4F9927982F88273327822BD7
S1132B10932B8D939C933092F8015093780180917C
S1132B201E028F5F80931E02C0927B01F0921D02F1
S1132B30E0921C02E091B802F091B9023196F09350
S1132B40B902E093B802E630F1050CF479CF209194
S1132B50F801822F9927809389021092880280912C
S1132B607801992780938B0210928A028091F70151
S1132B70992780938D0210928C028091BB02992731
S1132B80809393021092920280911E02992780935F
S1132B9091021092900280912701813031F486E0F5
S1132BA090E09093B9028093B80280917B018130C8
S1132BB049F580912401882311F4213031F080916A
S1132BC025018823F9F42230E9F44CE06CE772E043
S1132BD08FEF9FEF0E945208882379F491E090933D
S1132BE0DB018091F801813019F49093240105C030
S1132BF082E08093F8019093250110927B0102C03A
S1132C007FBF01C07801F0923701E09236018FB79F
S1132C10F894992710927A018FBF0E94870ADDC029
S1132C2080917201882361F5209120023091210264
S1132C304091220250912302EFB7F894FF2760914C
S1132C40FB017091FC018091FD019091FE01E090E7
S1132C505A01F0905B0100915C0110915D016E0DD1
S1132C607F1D801F911FEFBF20932002309321020C
S1132C704093220250932302109272010E94D702C1
S1132C800E942D020E949508A8C00E942D025B019B
S1132C906C018FB7F89499271092DC018FBF809153
S1132CA0EB0181FF25C08091E3019091E401A091A3
S1132CB0E501B091E601A6019501281B390B4A0BE9
S1132CC05B0BE090E701F090E8010091E9011091BD
S1132CD0EA01E21AF30A040B150B3FEFE3163FEF88
S1132CE0F3063FEF03073FE7130711F061E009C064
S1132CF06FEFE62E6FEFF62E6FEF062F6FE7162FAE
S1132D0060E08091F40181FF21C08091EC019091F9
S1132D10ED01A091EE01B091EF01A6019501281BF0
S1132D20390B4A0B5B0BDA01C9012091F001309198
S1132D30F1014091F2015091F301281B390B4A0B28
S1132D405B0B2E153F05400751072CF0662309F451
S1132D5044C0A8019701121613061406150614F0B0
S1132D600C948A0E20932002309321024093220275
S1132D705093230281E080937201C601B5010E9441
S1132D80D7022BC09091C50180912001981729F199
S1132D90909320019923C9F40091320110913301D9
S1132DA06091D701C8010E941507482F5527442375
S1132DB0A1F08FEF80932001609132017091330173
S1132DC0F80183850E94370808C08FEF80932001A3
S1132DD004C0550F41E00C94980EAA960FB6F894CF
S1132DE0DEBF0FBECDBFDF91CF911F910F91FF903A
S1132DF0EF90DF90CF90BF90AF909F908F907F9097
S1132E006F905F904F903F902F900895809179023A
S1132E108F3FB1F0282F3327F901E05AFE4F80810C
S1132E20809379028F3F11F48093BF028FEF8083E8
S1132E302F3F31F0822F0E943B0E81E090E00895F5
S1132E4080E090E008951F93CF93DF93CDB7DEB772
S1132E50E0970FB6F894DEBF0FBECDBF1FB7F8944E
S1132E604FE050E06FEF70E080E691E00E94CF1CED
S1132E708FEF809379028093BF0281E08EBD88E05A
S1132E8080BF83E083BF8CB59DB54AE72CB53DB5C3
S1132E902817390708F44150442311F0C901F6CF2B
S1132EA092B782B78917E9F32CB53DB592B782B7CB
S1132EB08917E9F38CB59DB5821B930B4096E5E029
S1132EC096958795EA95E1F790937B0280937A0231
S1132ED013BE83B78EBD8EB580BF12BE1DBC1CBC95
S1132EE08FEF86BF86B780937C0080B79927877061
S1132EF09070892BD1F7D29AD19AD09ADA9AD99A2A
S1132F00D89A15BA8FEF84BBD498DC981DBC1CBC2E
S1132F1087B7846087BF8EB5887F84608EBD0E942A
S1132F2006178823E1F78FEF80937701ECE4F1E053
S1132F308FEF9FEF918380831282339621E0E835EF
S1132F40F207C1F70E94390360930F0280910001D8
S1132F50909101010196AA27BB278093C101909308
S1132F60C201A093C301B093C40180B7886080BF3D
S1132F708BE083BF86EE81BF87B7826087BF0E94E4
S1132F80540284E492E090933701809336018E9842
S1132F90B89A8C988FEF8093CA011092FF01109217
S1132FA000021092010210920202B89AD69AD59A9F
S1132FB08FB7F894992720911D0130911E018FBF7E
S1132FC03093D0012093CF010E94EF0429A73AA7A0
S1132FD04BA75CA76DA77EA78FA798ABDE01919640
S1132FE0FE01B99688E001900D928150E1F7DE016F
S1132FF05196FE01B19688E001900D928150E1F75F
S1133000DE015996FE01719688E001900D9281507F
S1133010E1F7A5E0B2E0FE01799688E001900D9217
S11330208150E1F780911F01992790937D0180934E
S11330307C018FE18093FA018AE180930D020E9462
S1133040EF0429A73AA74BA75CA76DA77EA78FA774
S113305098ABDE019196FE01B99688E001900D923D
S11330608150E1F7DE011196FE01B19688E00190EE
S11330700D928150E1F7DE011996FE01319688E048
S113308001900D928150E1F7A5E0B2E0FE0139967E
S113309088E001900D928150E1F7A5E0B2E0FD01D6
S11330A037969C9180818D939083319782E0E830AC
S11330B0F807B9F781E0809374011092B502809308
S11330C07E01109204020E9406178823E1F7812FE3
S11330D099278FBF78940E94E40ADA9A10921F020B
S11330E0D99A10924B01D89A1092F9011092B90210
S11330F01092B802E0E0F0E080E090E020E132E0FD
S1133100A5EBB1E0EE0FFF1FE85CFE4F11821082C9
S1133110F901119211929F011D921D920196FC01D9
S1133120863091057CF386E090E09093B902809319
S1133130B8028091000190910101029781F484E02A
S113314090E0909339018093380190931102809319
S1133150100281E090E09093B6018093B5018FB79F
S1133160F894482F55274BC087B7992783709070E0
S1133170892B19F4E5E0F0E013C080B79927877034
S11331809070892BD1F781B792B7891B8C3030F0BE
S113319082B7853F18F4E3E0F0E002C0E2E0F0E03B
S11331A087B7887BC1F480917D008B7FA1F46E99F1
S11331B012C08AB190919A00892B887161F4809130
S11331C0740082FD08C0379B03C081E090E005C015
S11331D085E090E002C080E090E025B78E1708F407
S11331E0E82FFF27E457FF4FE491237E2062E22B70
S11331F0E5BF78948895F89485B78F7D85BF8091D5
S113320079028F3F09F4B0CF282F3327F901E05A10
S1133210FE4F8081809379028F3F11F48093BF0227
S11332208FEF80832F3F09F49FCF4FBF822F0E94DF
S11332303B0E95CF78941F920F920FB60F921124E4
S11332402F923F924F925F926F927F928F929F92B2
S1133250AF92BF92CF92DF92EF92FF920F931F93A0
S11332602F933F934F935F936F937F938F939F938A
S1133270AF93BF93CF93DF93EF93FF93C6B5D7B5C7
S11332808FB7F894282E0E94B9039B012C1B3D0B89
S1133290442755272B013C01421A530A640A750A34
S11332A080912E0190912F018530910521F0069790
S11332B009F0E0C0BFC086E090E090932F018093B6
S11332C02E0131E0332E309279011092300180E0EA
S11332D00E94DC04E091B301F091B40141AABB2740
S11332E0A72D962D852D80ABC301AA27BB2787A7C1
S11332F0872D9927AA27BB2786A7E091B301F091D0
S1133300B40185A5882309F484C0608165507727BA
S11333104F01860E971EF4012081E1808281A380F3
S11333209927AA27BB27BA2FA92F982F8827332795
S113333044275527522F442733272227FF240027C9
S113334011278701FF24EE242E293F29402B512BDE
S1133350BB24CC24DD242A293B294C295D29822B3A
S1133360932BA42BB52B84199509A609B70983833C
S1133370292F3A2F4B2F552722839D014427552768
S113338021838B2F9927AA27BB278083C09824E009
S1133390A40180E090E00E945606C09AF4012081C6
S11333A0E1808281A3809927AA27BB27BA2FA92F5E
S11333B0982F8827332744275527522F442733270C
S11333C02227FF24002711278701FF24EE242E291A
S11333D03F29402B512BBB24CC24DD242A293B2913
S11333E04C295D29822B932BA42BB52B840D951D81
S11333F0A61DB71D8383292F3A2F4B2F55272283D0
S11334009D014427552721838B2F9927AA27BB2762
S11334108083E091B301F091B401818185FF02C002
S113342030925F0183E00E94390A87B78F7E87BF9D
S113343084997AC01092790181E00E94DC04E091C1
S1133440B301F091B401818185FF0FC087E090E062
S113345090932F0180932E010E94B90320E031E064
S113346040E050E00E94760403C080E00E94CD0A50
S1133470849B5AC080913001882391F58091790111
S1133480882371F511E0109379010E94DC0480B364
S113349020917802283098F4E091B002E20FFF27DF
S11334A0E770F070EE0FFF1FEE0FFF1FEC5DFD4F96
S11334B040825182628273822F5F2093780210933C
S11334C03001D093D601C093D50184992DC099279A
S11334D0F4E096958795FA95E1F7182F117001C0DD
S11334E010E0809179018130F9F4109279010E9401
S11334F0DC04109230011123B9F48091D50190912C
S1133500D601C81BD90B2A9778F4809178028823B6
S113351019F08150809378028091B3019091B401A5
S1133520009711F00E942A032FBEFF91EF91DF91C3
S1133530CF91BF91AF919F918F917F916F915F9147
S11335404F913F912F911F910F91FF90EF90DF903A
S1133550CF90BF90AF909F908F907F906F905F902F
S11335604F903F902F900F900FBE0F901F90189583
S1133570ACE2B0E0EEEBFAE10C948B1C222E332E7D
S1133580442E552E662E772E882E992EFE013196C6
S1133590A8E01192AA95E9F729823A824B825C82CB
S11335A06D827E828F829886FE013996B8E01192F0
S11335B0BA95E9F7A986BA86CB86DC86ED86FE86BF
S11335C00F87188B89819A81AB81BC8189A79AA7BF
S11335D0ABA7BCA77C018D018FEF9FEFA0E0B0E00B
S11335E0E822F9220A231B2389A59AA5ABA5BCA529
S11335F01D014424552489859A85AB85BC858DA3FA
S11336009EA3AFA3B8A75C016D018FEF9FEFA0E06D
S1133610B0E0A822B922CA22DB228DA19EA1AFA1CB
S1133620B8A53D0188249924C801B701A6019501D4
S11336300E946C1C69A37AA38BA39CA3C801B70145
S1133640A40193010E946C1C7B018C01C201B10195
S1133650A60195010E946C1C5B016C01C201B101C1
S1133660A40193010E946C1C3B014C01EA0CFB1C5D
S11336700C1D1D1D89A19AA1ABA1BCA19D014427CC
S113368055272E0D3F1D401F511F2A153B054C0584
S11336905D0540F480E090E0A1E0B0E0680E791EA2
S11336A08A1E9B1ECA01AA27BB27860D971DA81D2B
S11336B0B91D8D8F9E8FAF8FB8A3A9013327222701
S11336C089A19AA1ABA1BCA1A070B070280F391F29
S11336D04A1F5B1F298F3A8F4B8F5C8FA98CBA8C42
S11336E0CB8CDC8CED8CFE8C0F8D18A1FE017196B9
S11336F098E011929A95E9F7ED8AFE8A0F8B188F5C
S11337002D813E814F8158856DA17EA18FA198A501
S11337100E946C1C3B014C012D853E854F855889C8
S113372069A57AA58BA59CA50E946C1C2D893E8950
S11337304F89588D260F371F481F591F260D371DD7
S1133740481D591D2D8B3E8B4F8B588F6D887E885D
S11337508F88988C2A2D3B2D4C2D5D2D662D772D31
S1133760882D992DE2E1AC960C94A71CA0E1B0E061
S1133770ECEBFBE10C948B1C222E332E442E552EA5
S1133780662E772E882E992E002309F466C088E0D1
S1133790FE01319611928A95E9F729833A834B8386
S11337A05C836D837E838F829887E0E2E01B1E1624
S11337B0CCF52D813E814F815885602F772767FD99
S11337C07095DA01C901062E04C0B695A7959795A0
S11337D087950A94D2F78D879E87AF87B88B04C0EC
S11337E0220F331F441F551FEA95D2F789819A810E
S11337F0AB81BC8104C0B695A795979587956A95CA
S1133800D2F7282B392B4A2B5B2B29873A874B87F6
S11338105C8729843A844B845C846D847E848F84A1
S113382098881BC01D861E861F86188A2E2F332754
S113383027FD3095309521953F4F8D819E81AF8135
S1133840B88504C0B695A795979587952A95D2F71C
S113385089879A87AB87BC87DCCF222D332D442DF3
S1133860552D662D772D882D992DE2E160960C94C7
S1133870A71C991B79E004C0991F961708F0961BA2
S1133880881F7A95C9F780950895AA1BBB1B51E13F
S113389007C0AA1FBB1FA617B70710F0A61BB70BBC
S11338A0881F991F5A95A9F780959095BC01CD0161
S11338B0089597FB092E07260AD077FD04D0E5DF8B
S11338C006D000201AF4709561957F4F0895F6F79D
S11338D0909581959F4F0895629FD001739FF00149
S11338E0829FE00DF11D649FE00DF11D929FF00D8C
S11338F0839FF00D749FF00D659FF00D9927729FC3
S1133900B00DE11DF91F639FB00DE11DF91FBD014D
S1133910CF01112408952F923F924F925F926F929C
S11339207F928F929F92AF92BF92CF92DF92EF924B
S1133930FF920F931F93CF93DF93CDB7DEB7CA1BCC
S1133940DB0B0FB6F894DEBF0FBECDBF09942A88F7
S1133950398848885F846E847D848C849B84AA849F
S1133960B984C884DF80EE80FD800C811B81AA812C
S1133970B981CE0FD11D0FB6F894DEBF0FBECDBFF7
S1133980ED010895FB01DC0104C08D9101908019C3
S113399021F441505040C8F7881B990B0895DC016D
S11139A001C06D9341505040E0F70895FFCFF1
S11339AE01003D00AD000B017301DF014702B102BE
S11339BE010008080102010001FFFFFFFF010022C0
S10739CEFFFFFF00F4
S9030000FC
